{
  "contractName": "Record",
  "abi": [
    {
      "inputs": [],
      "payable": false,
      "stateMutability": "nonpayable",
      "type": "constructor"
    },
    {
      "anonymous": false,
      "inputs": [
        {
          "indexed": false,
          "name": "recordHash",
          "type": "string"
        }
      ],
      "name": "RecordAdded",
      "type": "event"
    },
    {
      "constant": false,
      "inputs": [
        {
          "name": "_caseName",
          "type": "string"
        },
        {
          "name": "_recordHash",
          "type": "string"
        },
        {
          "name": "_area",
          "type": "string"
        }
      ],
      "name": "set",
      "outputs": [],
      "payable": false,
      "stateMutability": "nonpayable",
      "type": "function"
    },
    {
      "constant": true,
      "inputs": [
        {
          "name": "_area",
          "type": "string"
        }
      ],
      "name": "get",
      "outputs": [
        {
          "name": "",
          "type": "string[2][]"
        }
      ],
      "payable": false,
      "stateMutability": "view",
      "type": "function"
    }
  ],
  "bytecode": "0x608060405234801561001057600080fd5b5033600160006101000a81548173ffffffffffffffffffffffffffffffffffffffff021916908373ffffffffffffffffffffffffffffffffffffffff160217905550610bfd806100616000396000f3fe60806040526004361061004c576000357c0100000000000000000000000000000000000000000000000000000000900463ffffffff168063693ec85e14610051578063da465d741461008e575b600080fd5b34801561005d57600080fd5b50610078600480360361007391908101906107b1565b6100b7565b6040516100859190610a36565b60405180910390f35b34801561009a57600080fd5b506100b560048036036100b091908101906107f2565b6102d8565b005b606033600160009054906101000a900473ffffffffffffffffffffffffffffffffffffffff1673ffffffffffffffffffffffffffffffffffffffff168173ffffffffffffffffffffffffffffffffffffffff1614151561014c576040517f08c379a000000000000000000000000000000000000000000000000000000000815260040161014390610a9a565b60405180910390fd5b6000836040518082805190602001908083835b602083101515610184578051825260208201915060208101905060208303925061015f565b6001836020036101000a0380198251168184511680821785525050505050509050019150509081526020016040518091039020805480602002602001604051908101604052809291908181526020016000905b828210156102cc5783829060005260206000209060020201600280602002604051908101604052809291906000905b828210156102b9578382018054600181600116156101000203166002900480601f0160208091040260200160405190810160405280929190818152602001828054600181600116156101000203166002900480156102a55780601f1061027a576101008083540402835291602001916102a5565b820191906000526020600020905b81548152906001019060200180831161028857829003601f168201915b505050505081526020019060010190610206565b50505050815260200190600101906101d7565b50505050915050919050565b818160008090505b6000826040518082805190602001908083835b60208310151561031857805182526020820191506020810190506020830392506102f3565b6001836020036101000a0380198251168184511680821785525050505050509050019150509081526020016040518091039020805490508110156104a95782805190602001206000836040518082805190602001908083835b6020831015156103965780518252602082019150602081019050602083039250610371565b6001836020036101000a0380198251168184511680821785525050505050509050019150509081526020016040518091039020828154811015156103d657fe5b906000526020600020906002020160016002811015156103f257fe5b01604051808280546001816001161561010002031660029004801561044e5780601f1061042c57610100808354040283529182019161044e565b820191906000526020600020905b81548152906001019060200180831161043a575b505091505060405180910390201415151561049e576040517f08c379a000000000000000000000000000000000000000000000000000000000815260040161049590610a7a565b60405180910390fd5b8060010190506102e0565b506104b26105c8565b858160006002811015156104c257fe5b6020020181905250848160016002811015156104da57fe5b60200201819052506000846040518082805190602001908083835b60208310151561051a57805182526020820191506020810190506020830392506104f5565b6001836020036101000a038019825116818451168082178552505050505050905001915050908152602001604051809103902081908060018154018082558091505090600182039060005260206000209060020201600090919290919091509060026105879291906105ef565b50507f3207f2f793a2447f3db3a0ef5e003bf526a9ff5a0d2d0e456f8de3a935125e0d856040516105b89190610a58565b60405180910390a1505050505050565b60408051908101604052806002905b60608152602001906001900390816105d75790505090565b8260028101928215610631579160200282015b82811115610630578251829080519060200190610620929190610642565b5091602001919060010190610602565b5b50905061063e91906106c2565b5090565b828054600181600116156101000203166002900490600052602060002090601f016020900481019282601f1061068357805160ff19168380011785556106b1565b828001600101855582156106b1579182015b828111156106b0578251825591602001919060010190610695565b5b5090506106be91906106ee565b5090565b6106eb91905b808211156106e757600081816106de9190610713565b506001016106c8565b5090565b90565b61071091905b8082111561070c5760008160009055506001016106f4565b5090565b90565b50805460018160011615610100020316600290046000825580601f106107395750610758565b601f01602090049060005260206000209081019061075791906106ee565b5b50565b600082601f830112151561076e57600080fd5b813561078161077c82610ae7565b610aba565b9150808252602083016020830185838301111561079d57600080fd5b6107a8838284610b70565b50505092915050565b6000602082840312156107c357600080fd5b600082013567ffffffffffffffff8111156107dd57600080fd5b6107e98482850161075b565b91505092915050565b60008060006060848603121561080757600080fd5b600084013567ffffffffffffffff81111561082157600080fd5b61082d8682870161075b565b935050602084013567ffffffffffffffff81111561084a57600080fd5b6108568682870161075b565b925050604084013567ffffffffffffffff81111561087357600080fd5b61087f8682870161075b565b9150509250925092565b600061089482610b2a565b808452602084019350836020820285016108ad85610b13565b60005b848110156108e65783830388526108c88383516108f7565b92506108d382610b56565b91506020880197506001810190506108b0565b508196508694505050505092915050565b600061090282610b35565b8360208202850161091285610b20565b60005b8481101561094b57838303885261092d838351610992565b925061093882610b63565b9150602088019750600181019050610915565b508196508694505050505092915050565b600061096782610b4b565b80845261097b816020860160208601610b7f565b61098481610bb2565b602085010191505092915050565b600061099d82610b40565b8084526109b1816020860160208601610b7f565b6109ba81610bb2565b602085010191505092915050565b6000601a82527f54686973207265636f726420616c7265616479206578697374730000000000006020830152604082019050919050565b6000601e82527f4f6e6c79206f6666696369616c73206d617920616464207265636f72647300006020830152604082019050919050565b60006020820190508181036000830152610a508184610889565b905092915050565b60006020820190508181036000830152610a72818461095c565b905092915050565b60006020820190508181036000830152610a93816109c8565b9050919050565b60006020820190508181036000830152610ab3816109ff565b9050919050565b6000604051905081810181811067ffffffffffffffff82111715610add57600080fd5b8060405250919050565b600067ffffffffffffffff821115610afe57600080fd5b601f19601f8301169050602081019050919050565b6000602082019050919050565b6000819050919050565b600081519050919050565b600060029050919050565b600081519050919050565b600081519050919050565b6000602082019050919050565b6000602082019050919050565b82818337600083830152505050565b60005b83811015610b9d578082015181840152602081019050610b82565b83811115610bac576000848401525b50505050565b6000601f19601f830116905091905056fea265627a7a723058201e0b554a8e59a10731dccc58d528da5a015f67db6f7d2f45db8f202e3be0e2e16c6578706572696d656e74616cf50037",
  "source": "pragma solidity 0.5.0;\npragma experimental ABIEncoderV2;\n\ncontract Record {\n\n  mapping (string => string[2][]) records;\n  address owner;\n\n  constructor() public{\n    owner = msg.sender;\n  }\n\n  event RecordAdded(\n    string recordHash\n  );\n\n  modifier uniqueRecord\n    (string memory _recordHash, string memory _area) {\n    for(uint i = 0; i<records[_area].length; ++i) {\n      require(\n        keccak256(bytes(records[_area][i][1])) != keccak256(bytes(_recordHash)),\n        \"This record already exists\"\n      );\n    }\n    _;\n  }\n\n  modifier onlyOfficial (address sender) {\n    require(\n      sender == owner,\n      \"Only officials may add records\"\n    );\n    _;\n  }\n\n  function set\n    (string memory _caseName, string memory _recordHash, string memory _area)\n    public\n    uniqueRecord(_recordHash, _area)\n  {\n    string[2] memory tempRecord;\n    tempRecord[0] = _caseName;\n    tempRecord[1] = _recordHash;\n    records[_area].push(tempRecord);\n    emit RecordAdded(_recordHash);\n  }\n\n  function get(string memory _area)\n    public\n    view\n    onlyOfficial(msg.sender)\n    returns(string[2][] memory)\n  {\n    return records[_area];\n  }\n}\n",
  "sourcePath": "/home/guna_shekar02/Documents/hack36_sentinel/src/contracts/Record.sol",
  "compiler": {
    "name": "solc",
    "version": "0.5.0+commit.1d4f565a.Emscripten.clang"
  },
  "schemaVersion": "3.0.2",
  "updatedAt": "2020-02-14T19:10:02.126Z",
  "devdoc": {
    "methods": {}
  },
  "userdoc": {
    "methods": {}
  }
}